{
  "_format": "hh-sol-artifact-1",
  "contractName": "LayerZeroEndpointV2Mock",
  "sourceName": "contracts/mocks/LayerZeroEndpointV2.sol",
  "abi": [
    {
      "inputs": [
        {
          "components": [
            {
              "internalType": "uint32",
              "name": "srcEid",
              "type": "uint32"
            },
            {
              "internalType": "bytes32",
              "name": "sender",
              "type": "bytes32"
            },
            {
              "internalType": "uint64",
              "name": "nonce",
              "type": "uint64"
            }
          ],
          "internalType": "struct Origin",
          "name": "_origin",
          "type": "tuple"
        },
        {
          "internalType": "address",
          "name": "_receiver",
          "type": "address"
        },
        {
          "internalType": "bytes32",
          "name": "_guid",
          "type": "bytes32"
        },
        {
          "internalType": "bytes",
          "name": "_message",
          "type": "bytes"
        },
        {
          "internalType": "bytes",
          "name": "_extraData",
          "type": "bytes"
        }
      ],
      "name": "lzReceive",
      "outputs": [],
      "stateMutability": "nonpayable",
      "type": "function"
    },
    {
      "inputs": [
        {
          "internalType": "address",
          "name": "",
          "type": "address"
        }
      ],
      "name": "setDelegate",
      "outputs": [],
      "stateMutability": "nonpayable",
      "type": "function"
    }
  ],
  "bytecode": "0x608060405234801561001057600080fd5b50610565806100206000396000f3fe608060405234801561001057600080fd5b50600436106100365760003560e01c80630c0c389e1461003b578063ca5eb5e114610057575b600080fd5b6100556004803603810190610050919061021d565b610073565b005b610071600480360381019061006c91906102d9565b6100f3565b005b8573ffffffffffffffffffffffffffffffffffffffff166313137d65888787873388886040518863ffffffff1660e01b81526004016100b897969594939291906104ca565b600060405180830381600087803b1580156100d257600080fd5b505af11580156100e6573d6000803e3d6000fd5b5050505050505050505050565b50565b600080fd5b600080fd5b600080fd5b60006060828403121561011b5761011a610100565b5b81905092915050565b600073ffffffffffffffffffffffffffffffffffffffff82169050919050565b600061014f82610124565b9050919050565b61015f81610144565b811461016a57600080fd5b50565b60008135905061017c81610156565b92915050565b6000819050919050565b61019581610182565b81146101a057600080fd5b50565b6000813590506101b28161018c565b92915050565b600080fd5b600080fd5b600080fd5b60008083601f8401126101dd576101dc6101b8565b5b8235905067ffffffffffffffff8111156101fa576101f96101bd565b5b602083019150836001820283011115610216576102156101c2565b5b9250929050565b600080600080600080600060e0888a03121561023c5761023b6100f6565b5b600061024a8a828b01610105565b975050606061025b8a828b0161016d565b965050608061026c8a828b016101a3565b95505060a088013567ffffffffffffffff81111561028d5761028c6100fb565b5b6102998a828b016101c7565b945094505060c088013567ffffffffffffffff8111156102bc576102bb6100fb565b5b6102c88a828b016101c7565b925092505092959891949750929550565b6000602082840312156102ef576102ee6100f6565b5b60006102fd8482850161016d565b91505092915050565b600063ffffffff82169050919050565b61031f81610306565b811461032a57600080fd5b50565b60008135905061033c81610316565b92915050565b6000610351602084018461032d565b905092915050565b61036281610306565b82525050565b600061037760208401846101a3565b905092915050565b61038881610182565b82525050565b600067ffffffffffffffff82169050919050565b6103ab8161038e565b81146103b657600080fd5b50565b6000813590506103c8816103a2565b92915050565b60006103dd60208401846103b9565b905092915050565b6103ee8161038e565b82525050565b606082016104056000830183610342565b6104126000850182610359565b506104206020830183610368565b61042d602085018261037f565b5061043b60408301836103ce565b61044860408501826103e5565b50505050565b61045781610182565b82525050565b600082825260208201905092915050565b82818337600083830152505050565b6000601f19601f8301169050919050565b600061049a838561045d565b93506104a783858461046e565b6104b08361047d565b840190509392505050565b6104c481610144565b82525050565b600060e0820190506104df600083018a6103f4565b6104ec606083018961044e565b81810360808301526104ff81878961048e565b905061050e60a08301866104bb565b81810360c083015261052181848661048e565b90509897505050505050505056fea2646970667358221220a2d819f44bbfcf43d3803c2b6a0643f0cdee52634c201aa10e50691c8808247364736f6c63430008180033",
  "linkReferences": {},
  "deployedLinkReferences": {}
}